:100000001AC134C133C132C131C130C12FC12EC177
:100010002DC12CC13EC32AC129C128C127C100005E
:100020000000380000000000370002020202020255
:10003000010204081020A105B505C905DD05F2057A
:1000400006061B06310646065C0672068906A006F1
:10005000B706CE06E606FE0616072F074807620714
:100060007B079607B007CB07E60702081E083A0889
:10007000570874089108AF08CD08EC080B092B0944
:100080004B096B098C09AD09CF09F109140A370A2C
:100090005B0A7F0AA40AC90AEE0A150B3B0B620B26
:1000A0008A0BB20BDB0B050C2F0C590C840CB00C1B
:1000B000DC0C090D370D650D930DC30DF30D230EEB
:1000C000550E870EBA0EED0E210F560F8B0FC20F75
:1000D000F90F30106910A210DC10171153118F1195
:1000E000CC110A1249128912CA120B134E13911322
:1000F000D6131B146114A814F01439158315CE15EA
:100100001A166816B61605175517A717F9174D18BA
:10011000A218F8184F19A719011A5B1AB71A151B5C
:10012000731BD31B341C961CFA1C5F1DC61D2E1E90
:10013000971E021F6E1FDC1F4B20BB202E21A1210A
:1001400017228E2206238023FC237A24F9247A2581
:10015000FD258226082790271A28A6283429C42995
:10016000552AE92A7F2B172CB12C4C2DEB2D8B2EE9
:100170002D2FD22F79302231CD317B322B33DE330C
:1001800093344A350436C136803741380639CD3983
:10019000963A633B323C043DD93DB13E8B3F6940CA
:1001A0004A412E421543FF43EC44DC45D046C74745
:1001B000C248C049C14AC64BCE4CDA4DEA4EFD4F4B
:1001C00014512F524E5371549755C256F15724591A
:1001D0005B5A965BD65C1A5E625FAF6000625663E4
:1001E000B16410667467DD684B6ABE6B366DB36EC2
:1001F0003570BD714A73DC7474761178B4795D7BA7
:100200000B7DBF7E7A803A820084CD85A087798974
:10021000598B3F8D2C8F1F911A931B9523973399E0
:10022000499B679D8C9FB9A1EDA329A66DA8B9AA8A
:100230000DAD68AFCCB111241FBECFE5D2E0DEBF5B
:10024000CDBF10E0A0E6B0E0E4E0F9E002C0059028
:100250000D92A037B107D9F720E0A0E7B0E001C0C8
:100260001D92A13AB207E1F76CD24AC3C9CECF932F
:10027000DF9387FF07C08F7769F1813069F18230A2
:1002800069F183E090E0FC01E05DFF4F2491865D21
:100290009F4FFC0184918823D1F090E0880F991F33
:1002A000FC01EC5DFF4FA591B491FC01E25EFF4FB4
:1002B000C591D491611114C09FB7F8948C91E22F2D
:1002C000E0958E238C932881E223E8839FBFDF9102
:1002D000CF91089585E0D6CF82E0D4CF84E0D2CF0D
:1002E0008FB7F894EC91E22BEC938FBFF0CF8F9205
:1002F0009F92AF92BF92CF92DF92EF92FF924B010B
:100300005C018091990075016B0104C0F694E7943B
:10031000D794C7948A95D2F7D501CB0124E0B6953E
:10032000A795979587952A95D1F7C826D926EA26C5
:10033000FB26A5019B0156954795379527952821C2
:1003400039214A215B21C501B401B8D2C62AD72A76
:10035000E82AF92A8091880004C0F694E794D7949B
:10036000C7948A95D2F7C8208FEF8C0DFF90EF903D
:10037000DF90CF90BF90AF909F908F90089580E0D6
:1003800008958F929F92AF92BF92CF92DF92EF9299
:10039000FF92CF936B017C01809199004B01570133
:1003A00004C0B694A794979487948A95D2F721E3D2
:1003B00030E040E050E0C70168D222E330E040E0A6
:1003C00050E07CD2822FB701A6019CE0769567951C
:1003D000579547959A95D1F74821642F4DD2C82F4C
:1003E000A70196016AE056954795379527956A9536
:1003F000D1F7282139214A215B21C701B6015ED2FC
:10040000C60F809188008C23CF91FF90EF90DF90F2
:10041000CF90BF90AF909F908F9008950F931F93B0
:100420008B019C0180919900B901A80104C07695C7
:100430006795579547958A95D2F7CA018023B901E8
:10044000A80193E076956795579547959A95D1F7CA
:100450004123422B841B9091880089231F910F9187
:100460000895CF92DF92EF92FF920F931F93209106
:1004700099006B017C0104C0F694E794D794C7946B
:100480002A95D2F786016B017C0124E0F694E7946B
:10049000D794C7942A95D1F70C21262F201B309191
:1004A00088003695369504C096958795779567951B
:1004B0003A95D2F762238FEF860F1F910F91FF902D
:1004C000EF90DF90CF9008958F929F92AF92BF925E
:1004D000CF92DF92EF92FF920F931F93209199009A
:1004E00037E0320F6B017C0104C0F694E794D79497
:1004F000C7943A95D2F74B015C0104C0B694A79417
:10050000979487942A95D2F7840106238C2D86230D
:10051000602FB2D11F910F91FF90EF90DF90CF909D
:10052000BF90AF909F908F9008958F929F92AF92BF
:10053000BF92CF92DF92EF92FF9240919900242FC9
:1005400030E0F90134966B017C0104C0F694E79425
:10055000D794C794EA95D2F74B015C0104C0B694D6
:10056000A794979487944A95D2F7C8242E5F3F4F5B
:10057000DC01CB0104C0B695A795979587952A9580
:10058000D2F76FE479D18C29FF90EF90DF90CF9074
:10059000BF90AF909F908F900895DF92EF92FF925F
:1005A0000F931F93CF93DF93162FE72EF82E092F6B
:1005B000C0919900D0E028EE33E02C1B3D0B032EB8
:1005C000000C440B550B7AD1D22E29EE33E02C1BB4
:1005D0003D0B032E000C440B550B612F7E2D8F2DF0
:1005E000902F6CD18D2D8227612F46D1909188005C
:1005F0008923DF91CF911F910F91FF90EF90DF90B2
:1006000008950F931F93FC01718760877695679516
:10061000769567956787CB0195958795808B33E0B5
:10062000759567953A95E1F7668781E090E08C01D2
:10063000062E02C0000F111F0A94E2F7012E000CD3
:10064000220B330B0083118322833383462F46957D
:10065000DC0102C0AA0FBB1F4A95E2F7AD01B387C8
:10066000A2876695669501C0880F6A95EAF7818B27
:100670000150110921093109048315832683378329
:1006800041505109558744878150828B1F910F91AA
:1006900008951F920F920FB60F9211240F931F937C
:1006A0002F933F934F935F936F937F938F939F937A
:1006B000AF93BF93EF93FF93209174003091750037
:1006C0008091760090917700820F931F9093750030
:1006D0008093740082179307F8F4E0919E00F091E4
:1006E0009F006091700070917100809172009091F4
:1006F00073008B019C0101501109210931090093FC
:10070000700010937100209372003093730009956C
:100710008EBD84FF14C0C09AFF91EF91BF91AF913D
:100720009F918F917F916F915F914F913F912F9109
:100730001F910F910F900FBE0F901F901895C098AA
:10074000EBCF81B781BF78948AB582608ABD8AB5C4
:1007500081608ABD83B7887F836083BF789480B7C8
:10076000807F80BF80B7806880BF80B7806480BF93
:100770008CB580648CBD8FEF8DBD80B7876080BFE6
:1007800086B1876886B9379A87B5826087BD8BE85E
:1007900091E00197F1F707B400FEFDCF87B58460C3
:1007A00087BD10BE1FBC82E08CBD91E790BF9FEF5C
:1007B0009DBD90E89EBD13BE12BE8ABD83BF83E679
:1007C00089BD89B7806189BF60E080E850DD60E065
:1007D00081E84DDD60E082E84ADD60E083E847DDE6
:1007E00061E081E044DD61E080E041DD3699FECFEB
:1007F00084B165B1762F682F73708091A00091E06D
:10080000980F93709093A00097B9369A813069F150
:10081000A0F0823071F1833049F7FB01F695E7953E
:10082000F695E795EE0FFF1FEA5CFF4F85919491D7
:100830009093770080937600D9CF611582E0780796
:1008400010F460E072E07250FB0125E0F695E79548
:100850002A95E1F7EE7FF370E05AFF4F8081918196
:1008600090939F0080939E00C1CF8BE890E0C9DEFB
:10087000BDCF88E790E0FBCF002480FD060E660F19
:1008800011F08695D1F7802D0895EE27FF27AA272E
:10089000BB2708C0A20FB31FE41FF51F220F331F91
:1008A000441F551F969587957795679598F37040E7
:1008B000A9F7009799F7BD01CF010895A1E21A2E7B
:1008C000AA1BBB1BFD010DC0AA1FBB1FEE1FFF1FF4
:1008D000A217B307E407F50720F0A21BB30BE40B44
:1008E000F50B661F771F881F991F1A9469F760958B
:1008F0007095809590959B01AC01BD01CF01089545
:04090000F894FFCF99
:10090400CD029502640231020E02C101BF017701DA
:00000001FF
